:020000040000FA
:0400000080311C2807
:100008007E1480310B1F09280A281A282E00991CF3
:100018000E280F2814288F1C1228132814281A2891
:10002800191C172818281A280F081A287E100900E2
:1000380080311E282000CC01CD01CE01CF017E10D9
:1000480020008531442D2000B2002230A600260869
:10005800AB00252A253033060319332834284028D5
:100068003308A6003208860087012608810001307F
:10007800A6002608B207252AB001B101AF01492818
:100088002F150130A0070030A13D20088400210869
:1000980085000008303A03194428522820088400B3
:1000A8002108850000088731DF278031031C5D287F
:1000B8005E2894282000B001B1010A30F000003019
:1000C800F10020003108F3003008F2008731722770
:1000D800803171082000B1007008B0002008840049
:1000E800210885000008D03EA600FF300318003024
:1000F800A7002608B0072708B13D0130A007003047
:10010800A13D200884002108850000088731DF27E9
:10011800803103189028912861289428AF17AF28B8
:1001280020002108A7002008A600A00A0319A10A98
:1001380026088400270885000008B300003A031940
:10014800392A643A0319AF280D3A0319AF28113A2E
:1001580003199228252AAF1BB228B328CC282B08CC
:1001680086008701403FAD00413FAE000230A60047
:100178002608AB07AE1FC128C22826290330A600CF
:100188002608AF04AD09AE09AD0A0319AE0A26293F
:100198002B0886008701403FAD00413FAE0002308A
:1001A800A6002608AB072629B301B30A3308A60020
:1001B800A701A635A70DFD30260784008730273D07
:1001C8008500003FA800013FA90029082E02031D51
:1001D800EF2828082D020318F228F328F4282F29DD
:1001E8000130A6002608B30705303306031DFD2895
:1001F800FE28DA282F29B301B30A3308A600A7017D
:10020800A635A70DC630260784008730273D850010
:10021800003FA800013FA90029082E02031D162946
:1002280028082D02031819291A291B292F290130FA
:10023800A6002608B30704303306031D2429252900
:1002480001292F292F088039003A0319D828803A24
:100258000319FF282F2930083104031934293529B7
:100268003F292F08033903193A293B293F29FF3031
:10027800B007FF30B13D3108803A803C031D462964
:1002880030083302031849294A2953292000330822
:10029800A600A7012608B0022708B13B562920006E
:1002A800B001B1012F1D59295A2987292F0803396F
:1002B80003195F2960296B292D30A60032088600B2
:1002C8008701260881000130A6002608B2073008F9
:1002D8003104031970297129B3293030A600320876
:1002E80086008701260881000130A6002608B2078B
:1002F800FF30B007FF30B13D30083104031D8529B8
:1003080086297129B3293008310403198C298D29CC
:10031800A2292030A600320886008701260881001D
:100328000130A6002608B207FF30B007FF30B13D04
:1003380030083104031DA129A2298D292F0803396A
:100348000319A729A829B3292D30A6003208860049
:100358008701260881000130A6002608B207330865
:10036800A6002608AC001C2A0A30F8000030F90064
:100378002C08A600A701A635A70DFD302607840086
:100388008730273D8500003FF000013FF1002E082F
:10039800F3002D08F2008631C72680317108FB0072
:1003A8007008FA0087313E2780317808303E2000F7
:1003B800A8002808B300112A2C08A600A701A63512
:1003C800A70DC630260784008730273D8500003FEB
:1003D800F000013FF1002E08F3002D08F2008631ED
:1003E800C726803170080F392000A8002808AA0005
:1003F8002A08CE3E840087300318013E8500000895
:10040800A6002608B300112A2F088039003A0319DC
:10041800B829803A0319E029112A3308A6003208BE
:1004280086008701260881000130A6002608B20749
:10043800FF30A6002608AC072C0A031D242A252A0B
:10044800082A2108A7002008A600A00A0319A10A63
:1004580026088400270885000008A8002808B3009B
:100468003308031D382A392A2E28320886008701C6
:1004780081010800F60023000F0C890C0139F200F5
:1004880011081F397204031D4A2A4B2A3F2A1114E6
:1004980011184F2A502A4C2A0F0C890C0139F200E6
:1004A80011081F397204031D5A2A5B2A502A4E303C
:1004B80086313926823123000F0C890C0139F2006C
:1004C80011081F397204031D6A2A6B2A5F2A7608ED
:1004D800FA3886313926823123000F0C890C01390C
:1004E800F20011081F397204031D7B2A7C2A702A26
:1004F8007608FE3886313926823123000F0C890CA4
:100508000139F20011081F397204031D8C2A8D2A43
:10051800812A230091149118922A932A8F2A0F0C6A
:10052800890C0139F20011081F397204031D9D2A34
:100538009E2A932A4F3086313926823123000F0CA8
:10054800890C0139F20011081F397204031DAD2A04
:10055800AE2AA22A8731AC278231F2007208F40051
:1005680023000F0C890C0139F20011081F3972049D
:10057800031DBF2AC02AB42A91161116111AC52ABA
:10058800C62AC22A91149118CA2ACB2AC72A0F0C44
:10059800890C0139F20011081F397204031DD52A8C
:1005A800D62ACB2A4E3086313926823123000F0CC9
:1005B800890C0139F20011081F397204031DE52A5C
:1005C800E62ADA2A7608FA38863139268231230073
:1005D8000F0C890C0139F20011081F397204031D30
:1005E800F62AF72AEB2A7608FE3886313926823130
:1005F80023000F0C890C0139F20011081F3972040D
:10060800031D072B082BFC2A2300911491180D2B8E
:100618000E2B0A2B0F0C890C0139F20011081F3917
:100628007204031D182B192B0E2B4F3086313926D7
:10063800823123000F0C890C0139F20011081F398F
:100648007204031D282B292B1D2B8731AC278231DF
:10065800F2007208F50023000F0C890C0139F20032
:1006680011081F397204031D3A2B3B2B2F2B9116AF
:100678001116111A402B412B3D2B91149118452B23
:10068800462B422B0F0C890C0139F20011081F3937
:100698007204031D502B512B462B4E3086313926C0
:1006A800823123000F0C890C0139F20011081F391F
:1006B8007204031D602B612B552B7608FA3886319E
:1006C8003926823123000F0C890C0139F2001108F8
:1006D8001F397204031D712B722B662B111511190A
:1006E800762B772B732B7508F2000430F236890BC2
:1006F8007A2B0F307205F3007408F0397304080080
:1007080023000F0C890C0139F20011081F397204FB
:10071800031D8F2B902B842B11141118942B952BC0
:10072800912B0F0C890C0139F20011081F39720442
:10073800031D9F2BA02B952B9A30863139268331A8
:1007480023000F0C890C0139F20011081F397204BB
:10075800031DAF2BB02BA42B0130863139268331F2
:1007680023000F0C890C0139F20011081F3972049B
:10077800031DBF2BC02BB42B91149118C42BC52B70
:10078800C12B0F0C890C0139F20011081F397204B2
:10079800031DCF2BD02BC52B9B30863139268331B7
:1007A80023000F0C890C0139F20011081F3972045B
:1007B800031DDF2BE02BD42B8731AC278331F200CC
:1007C8007208F30023000F0C890C0139F20011089C
:1007D8001F397204031DF12BF22BE62B911611160B
:1007E800111AF72BF82BF42B0F0C890C0139F20096
:1007F80011081F397204031D022C032CF82B111544
:100808001119072C082C042C731F0B2C0C2C842B6F
:100818000F0C890C0139F20011081F397204031DED
:10082800162C172C0C2C111411181B2C1C2C182CE2
:100838000F0C890C0139F20011081F397204031DCD
:10084800262C272C1C2C9A308631392683312300FC
:100858000F0C890C0139F20011081F397204031DAD
:10086800362C372C2B2C0030863139268331230047
:100878000F0C890C0139F20011081F397204031D8D
:10088800462C472C3B2C911491184B2C4C2C482C63
:100898000F0C890C0139F20011081F397204031D6D
:1008A800562C572C4C2C9B3086313926833123000B
:1008B8000F0C890C0139F20011081F397204031D4D
:1008C800662C672C5B2C8731AC278331F2007208C9
:1008D800F30023000F0C890C0139F20011081F39AD
:1008E8007204031D782C792C6D2C91161116111A8F
:1008F8007E2C7F2C7B2C0F0C890C0139F2001108FF
:100908001F397204031D892C8A2C7F2C111511198B
:100918008E2C8F2C8B2C73080800F5007508F03985
:10092800F3007308F6007508F3000330F335FF3E53
:10093800031D9A2C7335F039F4007408F70023006E
:100948000F0C890C0139F30011081F397304031DBA
:10095800AE2CAF2CA32C11141118B32CB42CB02C22
:100968000F0C890C0139F30011081F397304031D9A
:10097800BE2CBF2CB42C4E3086313926843123004E
:100988000F0C890C0139F30011081F397304031D7A
:10099800CE2CCF2CC32C7608720408388631392621
:1009A800843123000F0C890C0139F30011081F3919
:1009B8007304031DE02CE12CD52C760872040C3846
:1009C80086313926843123000F0C890C0139F30054
:1009D80011081F397304031DF22CF32CE72C760839
:1009E8007204083886313926843123000F0C890CAB
:1009F8000139F30011081F397304031D042D052D57
:100A0800F92C770872040838863139268431230096
:100A18000F0C890C0139F30011081F397304031DE9
:100A2800162D172D0B2D770872040C3886313926B0
:100A3800843123000F0C890C0139F30011081F3988
:100A48007304031D282D292D1D2D770872040838DD
:100A580086313926843123000F0C890C0139F300C3
:100A680011081F397304031D3A2D3B2D2F2D111525
:100A780011193F2D402D3C2D0430890B412D0800C4
:100A88008F31F62785318731F1278531200093157D
:100A980013163E00CF154F168531C8258531000045
:100AA8008331842385312000B4003408C9008030A4
:100AB8008F31D62785310730F9009030FA00873119
:100AC80091278531C0308F31D627853100302000FD
:100AD800A0009030A1004908B400B5013408A20074
:100AE8003508A30038308031272085313830F900A7
:100AF8000030FA0087319127853181308F31D62730
:100B08008531003082313E2285312000B40034081E
:100B1800CA00013082313E2285312000B4003408F9
:100B2800CB00C8308F31D627853107302000A00090
:100B38008830A1004A08B400B5013408A20035087D
:100B4800A3004B08B600B7013608A4003708A50073
:100B580038308031272085313830F9000030FA00EC
:100B6800873191278531000004302000B500CF304F
:100B7800B4000130890BBE2DB40BBE2DB50BBE2DB4
:100B88000032532D80311C281130F8003A30890B7F
:100B9800CB2DF80BCB2D00323030863184268531B1
:100BA80034308631842685312930890BD92D00329D
:100BB8003030863184268531FA300032890BE12DB8
:100BC800303086318426853134308631842685312B
:100BD8002930890BED2D003230308631842685315D
:100BE8000830890BF52D0000303086318426853198
:100BF80034308631842685312930890B012E003224
:100C080030308631842685310830890B092E000062
:100C180020308631842685312430863184268531FA
:100C28002930890B152E00322030863184268531F3
:100C3800FA300032890B1D2EF201283084319124BC
:100C48008531F2010630843191248531F2010F306B
:100C5800843191248531F201013084319124853128
:100C6800A630890B352E00320800F10071082300E8
:100C78008C00901F402E412E422E832E0F301005DF
:100C8800F0000830700603194A2E4B2E612E0F30E3
:100C98001005F0000B3070060319532E542E612EE8
:100CA80010162E000F1C592E5A2E552E23000F19E0
:100CB8005E2E5F2E832E0F08832E0F301005F00056
:100CC800083070060319692E6A2E732E0F3010052E
:100CD800F0000B307006031D722E732E832E0F1832
:100CE800762E772E732E0F0C890C0139F00011081F
:100CF8001F397004031D812E822E772E11080800DB
:100D0800F30023000F0C890C0139F20011081F3978
:100D18007204031D902E912E852E11141118952EF4
:100D2800962E922E0F0C890C0139F20011081F39EA
:100D38007204031DA02EA12E962E4E308631392620
:100D4800863123000F0C890C0139F20011081F3974
:100D58007204031DB02EB12EA52E730886313926D4
:100D6800863123000F0C890C0139F20011081F3954
:100D78007204031DC02EC12EB52E11151119C52ED2
:100D8800C62EC22E0800F501F60170087104031979
:100D9800CE2ECF2EFE2EF701F70ADB2E0130F035CE
:100DA800F10D890BD32E0130F4007408F707F11FF9
:100DB800DE2EDF2ED22E0130F535F60D890BE02E12
:100DC80071087302031DEA2E70087202031CED2ECF
:100DD800EE2EF32E7008F2027108F33B7514013001
:100DE800F136F00C890BF42E0130F702031DFD2EAD
:100DF800FE2EDF2E7608F1007508F00008002000AE
:100E08009A01990196019701980107309500FF30E2
:100E18009100FF309200FF309300FF309400FF30C4
:100E28003E00D900E730CE00FF30C3000730E400B1
:100E3800FF30B800DA01E501C401B901CF01E601CC
:100E4800BA01C501D001DB01FF30BB00FF30C6008D
:100E5800FF30D100FF30DC000730E70013303D00E1
:100E6800C50014303E00A3001530A40014303D0026
:100E7800C6000800780879040319432F442F6D2F02
:100E8800FD01FD0A502F0130F835F90D890B482F67
:100E98000130FC007C08FD07F91F532F542F472F02
:100EA80079087B02031D5A2F78087A02031C5D2FEC
:100EB8005E2F622F7808FA027908FB3B0130F93679
:100EC800F80C890B632F0130FD02031D6C2F6D2F69
:100ED800542F7B08F9007A08F8000800F401F5019E
:100EE800701C772F782F7C2F7208F4077308F53D54
:100EF8000130F235F30D890B7D2F0130F136F00CFE
:100F0800890B822F70087104031D8B2F8C2F742F6F
:100F18007508F1007408F0000800962F20088F313A
:100F2800DD2787317A08FC007908FB00F90A0319E4
:100F3800FA0A7B0884007C0885000008FD007D080B
:100F48002000A0002008031DAA2FAB2F922F080015
:100F58000F3023001005F000083070060319B52F74
:100F6800B62FBF2F0F301005F0000B307006031D91
:100F7800BE2FBF2FC02F91150F1CC32FC42FC02FFA
:100F88000C080800013400341034003400340134F3
:100F9800003410343034313432343334343435346A
:100FA8003634373438343934613462346334643431
:100FB800653466340034F100F0013A3071020318E8
:100FC800E62FE72FEF2F30307102031CEC2FED2FA7
:100FD800EF2FF001F00A700C08002300901AF52F8B
:100FE800F62FFC2F8F0128309000910103308D00DF
:100FF8000800013400340A34003464340034E8341E
:1010080003341034273425343034323478342034DF
:0A10180025343034323478340034CB
:101FAC00F800F2017808843191248F310800F80090
:101FBC00F201F20A7808843191248F3108002F0045
:101FCC0096019701980199019A019B0108006230D2
:101FDC0031008D008F0191010230930092010800B5
:101FEC008F31E5278F31873103278F318F31ED27E3
:101FFC008F31080025343034323464342034433487
:0C200C000034543465346D3470340034FA
:020000040001F9
:0A000E00EC3FFF3F9F3FFF3FFF3F25
:00000001FF
